:100000000C944F010C9477010C9477010C947701B8
:100010000C9477010C9477010C9477010C94770180
:100020000C9477010C9477010C9417040C948904B8
:100030000C9477010C9477010C9477010C94770160
:100040000C9477010C9477010C9477010C94770150
:100050000C9477010C9477010C9477010C94DF07D2
:100060000C9477010C9477010C9477010C94770130
:100070000C9477010C9477010C9477010C94770120
:100080000C9477010C9477010C9477010C94770110
:100090000C9477010C9477010C9477010C94770100
:1000A0000C9477010C9477010C947701EE0AF10A15
:1000B000E00AE40AE80A120B120B120BF50AF90A1D
:1000C000FD0A030B070B120B0D0B000000000000D4
:1000D00000002A2B280000000000000000000000A3
:1000E000000000000000000000002C9EB4A0A1A2AF
:1000F000A434A6A7A5AE362D3738271E1F202122EF
:1001000023242526B333B62EB7B89F8485868788E7
:10011000898A8B8C8D8E8F909192939495969798D7
:10012000999A9B9C9D2F3130A3AD35040506070895
:10013000090A0B0C0D0E0F101112131415161718B7
:10014000191A1B1C1DAFB1B0B5000000000024003F
:1001500027002A002D003000080B000202020100D7
:10016000090400000102020000052400100105241A
:10017000010101042402060524060001070581038C
:1001800010004009040100020A00000007050202F5
:100190004000000705830240000004030904120127
:1001A0000002EF02014041233780000101020301F8
:1001B00041726475696E6F204C4C430041726475E6
:1001C000696E6F204D6963726F00000000002500AA
:1001D00028002B002E00310004040404040304054D
:1001E00002020202040302020202060606060606D4
:1001F00004040202020404040802011040804010BA
:10020000204080408008020401804020100201103C
:100210008010204040200000000200090F00000371
:100220000401000C000000000000000000000000BD
:10023000000000000005010902A1010901A10085DB
:10024000010509190129031500250195037501818F
:100250000295017505810305010930093109381539
:1002600081257F750895038106C0C005010906A197
:10027000018502050719E029E7150025017501959B
:1002800008810295017508810395067508150025FA
:10029000650507190029658100C078102F0D11240C
:1002A0001FBECFEFDAE0DEBFCDBF22E0A4EAB1E0AF
:1002B00001C01D92A336B207E1F711E0A0E0B1E062
:1002C000E4E0F8E202C005900D92A43AB107D9F734
:1002D00011E0CEE4D1E004C02197FE010E94951107
:1002E000CD34D107C9F70E94330D0C94F5130C944B
:1002F00000004091D4015091D5012091D20130915C
:10030000D30142175307B4F49091E8009570E1F3DC
:100310009091E80092FD19C08093F1008091D40182
:100320009091D50101968F739927892B19F48EEF3F
:100330008093E8008091D4019091D501019690932B
:10034000D5018093D40181E0089580E00895CF9293
:10035000DF92EF92FF920F931F93CF93DF931F9241
:10036000CDB7DEB7182F062FE42E862F880F8E5FAD
:1003700099830E94790183E00E947901F12EC12EB8
:100380009981D92E8C2D8F19801798F4F601E7FEEC
:1003900002C0849101C080810E947901182F80E001
:1003A0000E9479018123FFEFCF1ADF0A8111EACF82
:1003B00001C081E00F90DF91CF911F910F91FF90CD
:1003C000EF90DF90CF900895DF92EF92FF920F931E
:1003D0001F93CF93DF93D82E8A017B01E40EF51E85
:1003E000EB01CE15DF0571F0D7FE03C0FE0184914D
:1003F00001C088810E94790121968111F2CF8FEF8F
:100400009FEF01C0C801DF91CF911F910F91FF9025
:10041000EF90DF9008952FB7F89487708093E900EC
:100420009091E800892F807295FF04C09091F200AE
:1004300080E4891B2FBF0895615030F02091F100B6
:10044000FC0120830196F8CF289A84E68093DE0190
:100450000895CF92DF92EF92FF920F931F93CF9365
:10046000DF936C017A018B01C0E0D0E0CE15DF058F
:1004700089F0D8016D918D01D601ED91FC9101902B
:10048000F081E02DC6010995892B11F47E0102C08F
:100490002196ECCFC701DF91CF911F910F91FF9073
:1004A000EF90DF90CF9008958091CA0181110DC027
:1004B00082E08093C60184E08093C7011092C90155
:1004C0001092C80181E08093CA0186EC91E0089502
:1004D0000F931F93CF93DF931F92CDB7DEB782E0C8
:1004E000898342E450E068E571E080E80E94E4011D
:1004F0000E945402DC0112960D911C911397011574
:10050000110569F0D801ED91FC910280F381E02D95
:10051000BE016F5F7F4FC801099597FF07C08981B2
:100520000F90DF91CF911F910F910895F8010085F1
:100530001185E5CFCF93DF931F92CDB7DEB76983E7
:10054000DC01ED91FC910280F381E02D41E050E06F
:10055000BE016F5F7F4F09950F90DF91CF91089596
:1005600083E08093E9008091F200882319F08AE308
:100570008093E800089583E00E940B0290E00895C4
:10058000FC018485958597FD0BC09FB7F89482E0A8
:100590008093E9008091F2009FBF90E0019608955A
:1005A0009FB7F89482E08093E9008091F2009FBFAA
:1005B00090E008953FB7F8948091C2019091C301F3
:1005C000A091C401B091C50126B5A89B05C02F3FDD
:1005D00019F00196A11DB11D3FBFBA2FA92F982F69
:1005E0008827820F911DA11DB11DBC01CD0142E0E4
:1005F000660F771F881F991F4A95D1F70895DC0170
:10060000FB0112968C91129790E02481358182171C
:100610009307D1F491818081813A31F481E0913066
:1006200091F0933089F411C0813271F49B3021F440
:1006300082811F968C9305C09A3031F48281509646
:100640008C9381E00895089580E00895DC01FB011A
:1006500088E4808389E4818384E482831D969C916D
:100660001D979F709F5B93831D968D919C911E9704
:1006700024E0969587952A95E1F78F708F5B8483A8
:1006800085E00895EF92FF920F931F93CF93DF932E
:10069000FB012081213851F52381223239F5DC011B
:1006A00012962C9130E04481558142175307F1F4A2
:1006B000EC010B851C85E12CF12C0115110591F045
:1006C000F801448155816281738180E80E94E401D0
:1006D0008F3FFFEF9F0769F0E80EF91ED8010D91DB
:1006E0001C91EBCF81E08F87C70105C080E090E0CF
:1006F00002C08FEF9FEFDF91CF911F910F91FF907D
:10070000EF900895CF93DF93CDB7DEB769970FB61B
:10071000F894DEBF0FBECDBFFC01DB018C918F5F73
:100720008C93BE016F5F7F4F89E1DB011D928A953B
:10073000E9F729E0298384E08A8391E09D8383E0BF
:100740008E832A8721E22B879C879D879F8722E2C1
:10075000288B27E02B8B25E02C8B8E8B20E430E040
:10076000388F2F8B998F82818B8395858685998B86
:100770008A8B838180688D8B49E150E080E00E9404
:10078000E40169960FB6F894DEBF0FBECDBFDF91CE
:10079000CF910895FC0182818F5BFB01808381E012
:1007A0000895089580E090E008950F931F93CF93EC
:1007B000DF931F92CDB7DEB78C01FC018485958550
:1007C00097FF0EC0CE0101960E94050D019719F406
:1007D000298130E002C02FEF3FEFF80135872487F1
:1007E000F801848595850F90DF91CF911F910F912E
:1007F0000895CF93DF931F92CDB7DEB7FC018485B8
:10080000958597FD05C02FEF3FEF358724870BC0F7
:10081000CE0101960E94050D019719F4898190E09F
:1008200002C08FEF9FEF0F90DF91CF9108951F923D
:100830000F920FB60F9211248F939F938091E10036
:100840009091E100937F9093E10083FF0FC010929D
:10085000E90091E09093EB001092EC0092E390930A
:10086000ED001092DF0198E09093F00082FF20C02D
:1008700093E09093E9009091F200992319F09AE3A4
:100880009093E8009091D601992339F09091D60188
:1008900091509093D601992389F19091DE0199238B
:1008A00039F09091DE0191509093DE01992341F14E
:1008B00084FF10C08091E2008E7E81608093E20010
:1008C0008091E1008F7E8093E1008091D8018E7E3F
:1008D000806111C080FF16C08091E2008E7E806131
:1008E0008093E2008091E1008E7E8093E100809110
:1008F000D8018E7E81608093D80104C05D98CDCFF1
:100900002898D6CF9F918F910F900FBE0F901F9078
:1009100018951F920F920FB60F921124CF92DF926B
:10092000EF92FF920F931F932F933F934F935F93F9
:100930006F937F938F939F93AF93BF93EF93FF93A7
:10094000CF93DF93CDB7DEB76C97DEBFCDBF1092EC
:10095000E9008091E80083FFEDC168E0CE01459693
:100960000E941C0282EF8093E8008D8987FF05C0FA
:100970009091E80090FFFCCF03C09EEF9093E800B9
:10098000982F907609F0C6C09E892F89188D9111F5
:100990000CC0803829F48091D9018093F10002C005
:1009A0001092F1001092F10048C1422F50E0512BFB
:1009B000913051F4811141C14130510509F03DC1DF
:1009C0008091D9018D7F0BC0933061F4811135C1C5
:1009D0004130510509F031C18091D9018260809385
:1009E000D9012BC1953041F48091E80080FFFCCF04
:1009F00020682093E30021C1963009F05FC0EB8CA2
:100A0000FC8C1092E9001092D5011092D4011230A2
:100A100091F51092D3011092D2010E94680299E0E0
:100A2000BE016F5F7F4FDB01E92F1D92EA95E9F769
:100A300099831A8391E09E8390EA98879AEF998729
:100A40002091D4013091D501275F3F4F3C832B8308
:100A50008D831092E9001092D5011092D401F0928A
:100A6000D301E092D20149E050E080E00E94E4012D
:100A70000E946802E2C0F092D301E092D2010E948B
:100A80005402DC011296ED90FC901397E114F104EE
:100A900009F4C0C0D701ED91FC910480F581E02DEF
:100AA000BE016B5E7F4FC7010995009719F00CF0EE
:100AB000C4C0C7C0F701E084F184E8CF973009F4DF
:100AC000C0C0983021F481E08093F100B6C0993025
:100AD00009F0B3C0837009F0B4C0E1E0F1E081E057
:100AE00021E036E39081992361F08093E90020931F
:100AF000EB0091919093EC003093ED008F5F873085
:100B000089F78EE78093EA001092EA008F8980933C
:100B1000DF0193C08B8D9C8D1092E9001092D5015E
:100B20001092D4019093D3018093D201898D8111C9
:100B300056C08E899D89913A59F4813209F081C05D
:100B400047E050E06BE071E080E00E94E40175C096
:100B5000913209F076C0833289F4888D90E0982F25
:100B600088272F89822BA0E0B0E080930701909323
:100B70000801A0930901B0930A015FC0803269F4B3
:100B80008091E80082FFFCCF67E08BE091E00E945B
:100B90001C028BEF8093E80006C0823209F04DC042
:100BA0008F89809312018091D701882319F0EEEF8D
:100BB000FAE002C0E0E0F8E080910B0190910C01B6
:100BC000A0910D01B0910E01803B9440A105B105AB
:100BD00009F07BC08091120180FF93C076C00E9413
:100BE0005402DC0112960D911C9113970115110509
:100BF00041F1D801ED91FC910190F081E02DBE0111
:100C00006B5E7F4FC8010995811117C0F8010085FF
:100C10001185ECCF113009F44EC0133091F48F8957
:100C2000882309F445C0823081F440E86DE08CEB04
:100C300091E00E94A701882321F08EEF8093E800C5
:100C400079C081E28093EB0075C0813029F440E8DF
:100C50006BE080EB91E0EDCF833099F70E94540276
:100C6000DC011296ED90FC9013978E010F5F1F4FE1
:100C70006801E114F10479F0D701ED91FC9106804F
:100C8000F781E02DB801C7010995080F111DF70183
:100C9000E084F184EECFD8011C92F601019000208F
:100CA000E9F73197BF016C197D0940E0C601C1CF5A
:100CB0006AE971E002C06EE971E06115710509F23F
:100CC000FB01449150E080E840CF0FB6F894A8951E
:100CD00080916000886180936000109260000FBE78
:100CE000A895EE3F2AE0F20739F08091FE0A909134
:100CF000FF0A91838083A1CF1092FF0A1092FE0A0F
:100D00009CCFEE3F8AE0F80731F08081918190938B
:100D1000FF0A8093FE0A87E797E7918380839BE031
:100D200088E10FB6F894A895809360000FBE909369
:100D3000600083CF6C960FB6F894DEBF0FBECDBFB8
:100D4000DF91CF91FF91EF91BF91AF919F918F91E3
:100D50007F916F915F914F913F912F911F910F91D3
:100D6000FF90EF90DF90CF900F900FBE0F901F90ED
:100D70001895CF93DF9390E0FC01E950FE4F24914A
:100D8000FC01E852FE4F8491882361F190E0880FC6
:100D9000991FFC01E65BFE4FC591D491FC01E6531F
:100DA000FE4FA591B491611109C09FB7F894888155
:100DB000209582238883EC912E230BC0623061F44E
:100DC0009FB7F8943881822F809583238883EC9194
:100DD0002E2B2C939FBF06C08FB7F894E8812E2B43
:100DE00028838FBFDF91CF9108958F929F92AF920A
:100DF000BF92CF92DF92EF92FF926B017C010E9433
:100E0000DA024B015C01C114D104E104F104F1F0F8
:100E10000E94DA02DC01CB0188199909AA09BB09F1
:100E2000883E9340A105B10570F321E0C21AD108B4
:100E3000E108F10888EE880E83E0981EA11CB11C21
:100E4000C114D104E104F10419F7DDCFFF90EF9054
:100E5000DF90CF90BF90AF909F908F9008957F923A
:100E60008F929F92AF92BF92CF92DF92EF92FF92BA
:100E70000F931F93CF93DF93C82E8B017A0180913C
:100E8000DF01811103C08FEF9FEF75C08091D80102
:100E900080FF05C08091E00082608093E000CE2D4D
:100EA000DF2DD12C8AEF882E8C2D8770B82E8C2DBB
:100EB0008072A82E8C2D8074982E9AE3792E20971C
:100EC00009F452C08C2D0E940B02282F81110AC0F8
:100ED0008A948820C1F261E070E080E090E00E9496
:100EE000F506EDCF90E0C817D9070CF42C2F3FB7CB
:100EF000F894B092E9008091E80085FF33C0822F1A
:100F000090E0C81BD90BAA2029F02150A8F010921C
:100F1000F100FBCFF801C7FE07C0215058F0449103
:100F20004093F1003196F9CF215020F04191409348
:100F3000F100FACF080F191FDD2019F07092E800B8
:100F40000AC08091E80085FD08C07092E800DD24A9
:100F5000D394209739F0D12C05C0209719F4911023
:100F60007092E8003FBFABCFD110ACCF5D9A84E662
:100F70008093D601C701DF91CF911F910F91FF9010
:100F8000EF90DF90CF90BF90AF909F908F907F9029
:100F90000895CF93DF93EC0180911201882331F003
:100FA00083E00E942F071816190634F081E090E0C4
:100FB0009B838A8380E090E0DF91CF9108951F9218
:100FC0000F920FB60F9211242F933F938F939F93FD
:100FD000AF93BF938091BE019091BF01A091C001DA
:100FE000B091C1013091BD0123E0230F2D3720F4D2
:100FF0000196A11DB11D05C026E8230F0296A11D73
:10100000B11D2093BD018093BE019093BF01A093B9
:10101000C001B093C1018091C2019091C301A09120
:10102000C401B091C5010196A11DB11D8093C201FB
:101030009093C301A093C401B093C501BF91AF9138
:101040009F918F913F912F910F900FBE0F901F9006
:101050001895AF92BF92CF92DF92EF92FF920F93CB
:101060001F93CF93DF931F92CDB7DEB77C016983C7
:101070006A01590141E050E0BE016F5F7F4FFC0102
:1010800083810E942F078C0197FD0BC0F70183819C
:10109000A501B60180640E942F0797FD02C0800F52
:1010A000911F0F90DF91CF911F910F91FF90EF90C3
:1010B000DF90CF90BF90AF9008958091B5018111DE
:1010C0006BC081E08093A8018093A9012EEA31E0F2
:1010D0003093AB012093AA011092AD011092AC01A4
:1010E0002DE131E03093A5012093A4011092B001CD
:1010F0001092AF011092B2011092B1018093B3012E
:101100008093B40181EC8093AE010E945402FC01F3
:1011100021818091A80190E0820F911D089724F011
:1011200081E08093B50138C0A281B381109729F482
:1011300084EA91E0938382830EC018968D919C91EE
:101140001997009711F0DC01F8CF84EA91E0199625
:101150009C938E93189780818093A60181818093C0
:10116000A70190818091A901890F808380E09091EF
:10117000A8018917A8F6A091AA01B091AB01A80F08
:10118000B11D9C91A181B0E0A050BF4F9C93918173
:101190009F5F91838F5FEBCF84EA91E00895CF93B7
:1011A000DF93DC01683810F0685825C0E62FF0E0C6
:1011B00067FF12C0E058F10981E090E001C0880F9C
:1011C000EA95EAF7809514969C91149789231496D2
:1011D0008C93149760E00FC0E653FF4F6491662331
:1011E00029F167FF08C014968C9114978D7F14968F
:1011F0008C9314976F77FD01369686E0662321F075
:101200009081961301C01082815031968111F6CFE2
:10121000ED010E945D08AE014C5F5F4F28E030E0B9
:1012200062E00E94290881E090E002C080E090E046
:10123000DF91CF910895CF93DF93DC01683810F0F0
:1012400068582DC0E62FF0E067FF11C0E058F109A3
:1012500081E090E001C0880FEA95EAF714969C912E
:101260001497892B14968C93149760E018C0E6535A
:10127000FF4F6491611109C081E090E013969C9347
:101280008E93129780E090E046C067FF08C01496E6
:101290008C911497826014968C9314976F7716969E
:1012A0008C911697861751F117968C911797861780
:1012B00029F118968C911897861701F119968C913F
:1012C00019978617D9F01A968C911A978617B1F04C
:1012D0001B968C911B97861789F0FD01369680E04E
:1012E00090E02191211105C0FD01E80FF91F6683EF
:1012F00005C0019686309105A1F7BECFED010E9491
:101300005D08AE014C5F5F4F28E030E062E00E9474
:10131000290881E090E0DF91CF910895EF92FF924C
:101320001F93CF93DF93EC01162F0E941B097C01C2
:10133000612FCE010E94CF08C7019927DF91CF917D
:101340001F91FF90EF9008950E949213FC01248159
:101350003581232B31F421E061157105A1F0FB01EA
:1013600008C0FC01808191816115710531F421E093
:10137000FC018081882339F005C00E94BD1321E063
:10138000892B09F020E0822F08950F931F93CF93AC
:10139000DF93EC0188819981009729F02A813B81B4
:1013A0002617370788F48B016F5F7F4F0E94C812A2
:1013B000009761F0998388831B830A832C813D8188
:1013C000232B11F4FC01108281E001C080E0DF9149
:1013D000CF911F910F910895CF93DF93EC018881F6
:1013E0009981009711F00E943012198218821D8293
:1013F0001C821B821A82DF91CF910895EF92FF9297
:101400000F931F93CF93DF938C017B0161157105BF
:1014100069F0FB0101900020E9F73197EF01C61B4D
:10142000D70BBE010E94C509811104C0C8010E94EA
:10143000EC0908C0F801D583C483B701808191818C
:101440000E94C613C801DF91CF911F910F91FF90A9
:10145000EF900895FC01808191810C943012EF92FD
:10146000FF920F931F93CF93DF93EC0119821882A1
:101470001B821A821D821C826115710521F18B016C
:10148000FB0101900020E9F731977F01E61AF70A86
:10149000B7010E94C509811109C0CE01DF91CF912A
:1014A0001F910F91FF90EF900C94EC09FD82EC825C
:1014B000B80188819981DF91CF911F910F91FF90A1
:1014C000EF900C94C613DF91CF911F910F91FF9075
:1014D000EF900895BF92CF92DF92EF92FF920F9319
:1014E0001F93CF93DF937C016B018A01E9012417DD
:1014F000350720F4812F8901C42FD82F63EA71E0CA
:10150000C7010E942F0AD60114968D919C911597C0
:1015100008171907D0F48C179D0708F4EC01D601C1
:10152000ED91FC911197EC0FFD1FB08010824D9151
:101530005C91BA01600F711FC7010E94FE09D601BC
:10154000ED91FC91EC0FFD1FB082C701DF91CF91AF
:101550001F910F91FF90EF90DF90CF90BF90089573
:10156000BC01009791F0FC0101900020E9F7319750
:10157000AF01481B590BE091E001F091E1010280BD
:10158000F381E02D80EE91E0099480E090E00895F1
:10159000E3E2F2E04491E4E0F2E02491E5EEF1E0F0
:1015A0009491992309F451C04423E1F150E0FA01E8
:1015B0003197EF30F105B0F5EA5AFF4F0C949511D1
:1015C000309180003F7707C0309180003F7D03C09D
:1015D00030918000377F3093800024C034B53F774E
:1015E00002C034B53F7D34BD1DC0309190003F77BF
:1015F00007C0309190003F7D03C030919000377F4D
:10160000309390000FC03091C0003F7703C03091FD
:10161000C0003F7D3093C00005C03091C200377FCD
:101620003093C200E92FF0E0EE0FFF1FE653FE4FAC
:10163000A591B4919FB7F894EC91811103C02095C6
:101640002E2301C02E2B2C939FBF0895CF93DF93A1
:101650000E94B00AEC0181EA91E00E94B00A8C0F6E
:101660009D1FDF91CF910895CF93DF93E091E0012B
:10167000F091E101DC0114964D915C9115976D910B
:101680007C910280F381E02D80EE91E00995EC01E0
:1016900081EA91E00E94B00A8C0F9D1FDF91CF91EB
:1016A0000895EF92FF920F931F93CF93DF93EC0176
:1016B0008091410290914202E0903D02F0903E0202
:1016C0000C811D81E114F104B1F00097B9F0080F0D
:1016D000191FB801CE010E94C509882361F0288135
:1016E00039818C819D81B701820F931F0E94C6139F
:1016F0001D830C8303C0CE010E94EC09CE01DF9153
:10170000CF911F910F91FF90EF900895FC014481BC
:10171000558180914102909142028417950780F093
:1017200080913D0290913E02009751F0608171815D
:101730006115710529F00E94CD1321E0892B09F074
:1017400020E0822F0895CF93DF9300D000D0CDB753
:10175000DEB79091300299838A836B831C820E944A
:101760005D0824E030E0AE014F5F5F4F61E00E9412
:1017700029080F900F900F900F90DF91CF9108954F
:101780008093300260E080E00E94A30B1092300250
:1017900060E080E00C94A30B2F923F924F925F92F7
:1017A0006F927F928F929F92AF92BF92CF92DF9271
:1017B000EF92FF920F931F93CF93DF93809041029C
:1017C000909042028114910409F40CC1FC016480E0
:1017D00075806114710409F405C1EB017C01CC80B2
:1017E000DD80C618D70800913D0210913E02C11459
:1017F000D104B1F4F70160817181C8010E94DB134B
:101800008C01892B09F4EEC0688179814C815D815E
:10181000C8010E9497138C819D81080F191FEACF80
:10182000D7FE02C0580106C0FC014080518054011F
:10183000C80144C0F70160817181C5010E94DB13BA
:101840004C01892B29F134016A187B08A301B501E9
:10185000C8010E949713060D171D688179814C817C
:101860005D81C8010E9497138C819D81080F191F0B
:10187000F701A480B580A80CB91C80914102909119
:1018800042028C0D9D1D9093420280934102D2CF63
:10189000B501C801DF91CF911F910F91FF90EF909B
:1018A000DF90CF90BF90AF909F908F907F906F9080
:1018B0005F904F903F902F900C94C613B2010E94FE
:1018C000DB13009729F0860D971DAC0CBD1CF6CFDD
:1018D000A814B90409F486C080913F029091400297
:1018E0008A159B0588F4B5016F5F7F4FC8010E9480
:1018F000C812009709F476C090933E0280933D028F
:10190000B0924002A0923F02009141021091420227
:101910000150110917FD66C0F7014480558041143C
:10192000510409F45FC0A0904102B0904202A1149A
:10193000B10409F457C0A414B50408F453C00A153F
:101940001B0518F085010150110960903D0270904F
:101950003E02C30188248A94982C1301200E311E64
:101960002816390638F0F701608171810E94DB1377
:10197000009779F597FC36C0480C591CC301840DBB
:10198000951DA50144195509BC018C0D9D1D0E9492
:10199000A01380914102909142028C0D9D1D909365
:1019A00042028093410220913D0230913E02F901B2
:1019B000E80FF91F108280913D0290913E026881EC
:1019C00079814C815D81880D991D0E949713840156
:1019D0009FCF9C01261937090217130708F0490108
:1019E0000196BECFDF91CF911F910F91FF90EF90A5
:1019F000DF90CF90BF90AF909F908F907F906F902F
:101A00005F904F903F902F900895FC018091DF01EF
:101A1000811103C08FEF9FEF08959FB7F89482E084
:101A20008093E9002091F20030E01216130614F4BE
:101A300021E030E02115310559F0289A84E68093A1
:101A4000DE018091F10080838091F200882319F0FB
:101A50009FBFC90108958BE68093E800F9CF8DE31D
:101A600092E00C942A0ACF93DF93CDB7DEB72C9780
:101A70000FB6F894DEBF0FBECDBF789484B58260F8
:101A800084BD84B5816084BD85B5826085BD85B522
:101A9000816085BD80916E00816080936E001092A0
:101AA000810080918100826080938100809181001B
:101AB00081608093810080918000816080938000AC
:101AC000809191008260809391008091910081606B
:101AD000809391008091900081608093900080912C
:101AE000C10084608093C1008091C10082608093B6
:101AF000C1008091C10081608093C1008091C300CA
:101B000081608093C3008091C00082608093C00098
:101B10008091C20081608093C20080917A008460CD
:101B200080937A0080917A00826080937A0080911D
:101B30007A00816080937A0080917A008068809337
:101B40007A001092DF011092D9011092D801809191
:101B5000D70081608093D70080EA8093D80089B550
:101B6000806189BD89B5826089BD09B400FEFDCF61
:101B700061E070E080E090E00E94F5068091D8007E
:101B80008F7C80618093D8008091E000807F80937B
:101B9000E0008091E1008E7E8093E1008DE08093F3
:101BA000E200559A209A5D982898EEEFFFE785911C
:101BB00094918B3F9C4D19F481E08093D70162E0B2
:101BC00082E00E94B90662E083E00E94B90661E00B
:101BD0008DE00E94B90680E00E94C80A8FEF9FEF57
:101BE0009093ED018093EC0164EF71E080E090E070
:101BF0000E94F5069924939480E0E82E80E0F82E68
:101C00008824839480EE91E00E94C0021816190681
:101C10000CF0CFC063EA71E08DE392E00E94FE0910
:101C200080EE91E00E94C002181619066CF580EE55
:101C300091E00E94F90389831A8200914102109178
:101C400042020F5F1F4FB8018DE392E00E94C50969
:101C5000882399F020913D0230913E02809141020B
:101C600090914202BE016F5F7F4F820F931F0E94CF
:101C7000C613109342020093410262E070E080E0DC
:101C800090E00E94F506CCCF63EA71E08DE392E02C
:101C90000E94A60981118DC08091DD01811189C04A
:101CA000ADC069E471E0CE0101960E942F0ACE0119
:101CB00001960E94860B182FCE0101960E942A0AD7
:101CC000112309F430C1209141023091420242E0D7
:101CD00050E06DE372E0CE0107960E946A0A8B85A0
:101CE0009C85892B09F418C1CF80D8846CE270E000
:101CF000C6010E94B213009709F40EC18C010C19A1
:101D00001D09980140E050E0BE01695F7F4FCE01A0
:101D100001960E946A0A89819A81009709F4FFC09E
:101D20000E941611D62ECE0101960E942A0A2B85FA
:101D30003C85A8014F5F5F4FBE01695F7F4FCE01B9
:101D400001960E946A0A89819A81009709F4E9C084
:101D50000E941611162FCE0101960E942A0A60E0F9
:101D60008D2D0E94A30B6AE070E080E090E00E945D
:101D7000F506612F80E00E94A30B62E070E080E036
:101D800090E00E94F5066CE471E0CE0101960E949D
:101D90002F0ACE0101960E94510B0E94340BCE01F6
:101DA00001960E942A0ACE0107960E942A0A1092E2
:101DB000DD016AE070E080E090E00E94F50680912D
:101DC000DB019091DC010196853691052CF490930E
:101DD000DC018093DB010BC01092DC011092DB016F
:101DE0008091DA0189258093DA010E94C80AE11402
:101DF000F10409F407CF0E94000004CF8092DD01B6
:101E000063EA71E0CE0101960E942F0A6FE971E04A
:101E1000CE0107960E942F0ABE016F5F7F4FCE0151
:101E200007960E94CC0BCE0107960E942A0ACE018B
:101E300001960E942A0A63EA71E0CE0101960E948F
:101E40002F0A62EA71E0CE0107960E942F0ABE01B6
:101E50006F5F7F4FCE0107960E94CC0BCE01079695
:101E60000E942A0ACE0101960E942A0AC0903D02D1
:101E7000D0903E02C114D10409F444C00091410243
:101E80001091420201151105E9F1360153018FEF5E
:101E9000681A780AF5018081082E000C990B0E94BF
:101EA0005211892B99F7015011090C0D1D1DF801D4
:101EB0008081082E000C990B0E945211892B89F405
:101EC000A8014F5F5F4F4A195B095093420240934C
:101ED0004102CA14DB0458F4B501C6010E949713ED
:101EE00006C00A151B0560F301501109E0CFE0910F
:101EF0003D02F0913E028091410290914202E80F32
:101F0000F91F10828091410290914202039708F0DC
:101F1000C8CE83E491E0E9C00FEF1FEFF2CED12CE1
:101F200002CF10E018CF63E571E0CE0101960E9468
:101F30002F0ACE0101960E94860B182FCE01019622
:101F40000E942A0A112311F120914102309142028C
:101F500042E050E06DE372E0CE0107960E946A0A0B
:101F600060E571E0CE0107960E94A609882351F032
:101F70003BC082E00E94C00B6AE070E080E090E02D
:101F80000E94F50682E00E94C00BF7CE62E571E088
:101F9000CE0101960E942F0ACE0101960E94860B67
:101FA000182FCE0101960E942A0A1123F9F02091E0
:101FB00041023091420243E050E06DE372E0CE0115
:101FC00007960E946A0A60E571E0CE0107960E94BA
:101FD000A609882371F281E00E94C00B6AE070E0DC
:101FE00080E090E00E94F50681E0CDCF66E571E0EB
:101FF000CE0101960E942F0ACE0101960E94860B07
:10200000182FCE0101960E942A0A1123A9F02091CF
:1020100041023091420242E050E06DE372E0CE01B5
:1020200007960E946A0A4B855C856F81788581E3FB
:1020300092E00E942902A1CE69E571E08DE392E071
:102040000E94A6098823A9F061EB81E392E00E9437
:102050001B0965E070E080E090E00E94F50661EB0E
:1020600081E392E00E94CF0862E070E080E090E0BF
:102070000CC06DE571E08DE392E00E94A609882313
:10208000A9F065E070E080E090E00E94F5066CE465
:1020900071E0CE0101960E942F0ACE0101960E94A6
:1020A000510B0E94340BCE0101967FCE63E671E0A6
:1020B0008DE392E00E94A609882309F478CE88E691
:1020C00091E00E94260B80E791E00E94260B8AE7B0
:1020D00091E00E94260B87E991E00E94260B87E899
:1020E00091E00E94260B86E991E00E94260B5FCECC
:1020F0001092E3011092E20188EE93E0A0E0B0E0DC
:102100008093E4019093E501A093E601B093E70189
:1021100089E291E09093E1018093E0018FEF9FEFDE
:102120009093ED018093EC0110923002809149026E
:10213000811113C0109244021092430285E392E091
:10214000909346028093450286E390E09093480284
:102150008093470281E0809349020E945D08FC0160
:10216000A385B485109729F483E492E0948783874C
:102170000BC08D919C911197009711F0DC01F9CF64
:1021800083E492E08D939C93258536858091470268
:1021900090914802820F931F968785871092340290
:1021A000109233028BE391E09093320280933102DC
:1021B00080915702811113C0109252021092510265
:1021C0008BE692E090935402809353028FE290E06A
:1021D000909356028093550281E0809357020E94AB
:1021E0005D08FC01A385B485109729F481E592E090
:1021F000948783870BC08D919C911197009711F064
:10220000DC01F9CF81E592E08D939C93258536859D
:102210008091550290915602820F931F9687858771
:1022200063EA71E08DE392E00C942F0A1F93FC01A6
:1022300099278827BC01E89411911032E9F31930ED
:1022400010F01E30C8F31B3251F01D3249F468946F
:1022500006C00E943D11610F711D811D911D1191DC
:1022600010531A30B0F33EF49095809570956195B7
:102270007F4F8F4F9F4F1F910895592F482F372F12
:10228000262F660F771F881F991F660F771F881FDD
:10229000991F620F731F841F951F660F771F881F7A
:1022A000991F089591110C945B11803219F0895097
:1022B0008550C8F708959927882708952F923F924F
:1022C0004F925F926F927F928F929F92AF92BF9246
:1022D000CF92DF92EF92FF920F931F93CF93DF93F2
:1022E000CDB7DEB7CA1BDB0B0FB6F894DEBF0FBE4F
:1022F000CDBF09942A88398848885F846E847D849C
:102300008C849B84AA84B984C884DF80EE80FD809D
:102310000C811B81AA81B981CE0FD11D0FB6F89413
:10232000DEBF0FBECDBFED010895EE0FFF1F05907C
:10233000F491E02D0994CF93DF938230910510F44E
:1023400082E090E0E0916102F091620220E030E0F2
:10235000C0E0D0E0309711F1408151814817590712
:10236000C0F04817590761F482819381209719F0D2
:102370009B838A832BC0909362028093610226C064
:102380002115310519F04217530718F49A01BE01BF
:10239000DF01EF010280F381E02DDCCF2115310553
:1023A00009F1281B390B2430310590F412968D91D8
:1023B0009C9113976115710521F0FB019383828332
:1023C00004C09093620280936102FD01329644C082
:1023D000FD01E20FF31F81939193225031092D9358
:1023E0003C933AC020915F0230916002232B41F46C
:1023F00020911501309116013093600220935F0205
:1024000020911301309114012115310541F42DB7AC
:102410003EB74091170150911801241B350BE091F4
:102420005F02F0916002E217F307A0F42E1B3F0B4E
:102430002817390778F0AC014E5F5F4F2417350736
:1024400048F04E0F5F1F5093600240935F028193EC
:10245000919302C0E0E0F0E0CF01DF91CF910895C9
:102460000F931F93CF93DF93009709F48CC0FC0167
:10247000329713821282009161021091620201155B
:10248000110581F420813181820F931F20915F0219
:10249000309160022817390779F5F0936002E093D4
:1024A0005F0271C0D80140E050E0AE17BF0750F4A2
:1024B00012962D913C911397AD012115310509F12B
:1024C000D901F3CF9D01DA013383228360817181C9
:1024D000860F971F8217930769F4EC0128813981D1
:1024E000260F371F2E5F3F4F318320838A819B81C8
:1024F00093838283452B29F4F0936202E093610277
:1025000042C01396FC93EE931297ED0149915991B5
:102510009E01240F351FE217F30771F4808191812A
:10252000840F951F029611969C938E9382819381BE
:1025300013969C938E931297E0E0F0E0D8011296E8
:102540008D919C911397009719F0F8018C01F6CFAB
:102550008D919C9198012E5F3F4F820F931F209188
:102560005F02309160022817390769F4309729F427
:10257000109262021092610202C0138212821093C2
:10258000600200935F02DF91CF911F910F91089538
:10259000A0E0B0E0EEECF2E10C946211EC010097E7
:1025A00021F4CB010E949B11B8C0FC01E60FF71F7C
:1025B0009C0122503109E217F30708F4ACC0D9019D
:1025C0000D911C91119706171707B0F005301105F2
:1025D00008F49FC0C80104978617970708F499C0AC
:1025E00002501109061B170B019311936D937C93F5
:1025F000CF010E9430128DC05B01A01AB10A4C01BC
:10260000800E911EA0916102B091620240E050E004
:10261000E12CF12C109709F44AC0A815B905D1F5A1
:102620006D907C901197630182E0C80ED11CCA1492
:10263000DB0480F1A3014A195B096A0182E0C80E3C
:10264000D11C1296BC9012971396AC91B5E0CB16A4
:10265000D10440F0B282A38351834083D9016D93AA
:102660007C930AC00E5F1F4FC301800F911FF901B9
:1026700091838083EB2DFA2FE114F10431F0D7011F
:102680001396FC93EE93129744C0F0936202E0938A
:1026900061023FC08D919C9111974817590708F42A
:1026A000AC017D0112960D90BC91A02DB3CF80910D
:1026B0005F029091600288159905E1F4461757076B
:1026C000C8F48091130190911401009741F48DB7E3
:1026D0009EB74091170150911801841B950BE81784
:1026E000F907C8F4F0936002E0935F02F901718387
:1026F00060830FC0CB010E949B117C01009759F0B1
:10270000A801BE010E949713CE010E943012C7019A
:1027100004C0CE0102C080E090E0CDB7DEB7EEE0AD
:102720000C947E1181E090E0F8940C94F513FB0179
:10273000DC0102C001900D9241505040D8F708953D
:102740006817790768F4FB01DC01E40FF51FA40F9B
:10275000B51F02C002900E9241505040D8F7089524
:102760000C949713FC018191861721F08823D9F7E7
:10277000992708953197CF010895FB01DC018D91D0
:10278000019080190110D9F3990B0895FB01DC0128
:1027900001900D920020E1F70895FB01DC0141500A
:1027A000504030F08D910190801919F40020B9F754
:1027B000881B990B0895FB0151915523A9F0BF0186
:1027C000DC014D9145174111E1F759F4CD0101901C
:1027D000002049F04D9140154111C9F3FB01411111
:1027E000EFCF81E090E00197089511E0CEE4D1E0D1
:1027F00004C0FE010E9495112196CF34D107C9F77C
:04280000F894FFCF7A
:1028040000C18081000000FFFFFFFF00E100000025
:1028140000000000006302800000000000FF02824C
:102824000342032603000000009A02C907BB02B05A
:1028340002C002F903D503000000008E092902D268
:1028440003D1034552524F52004D3A004F4B2C00D6
:102854004C0044433A004B3A0045534300526561EF
:1028640064790068656C70004553432D3E4F4B00FE
:1028740052656164792D3E4F4B004D3A3130302C16
:1028840032302D3E4F4B004B3A48656C6C6F2C77C1
:102894006F726C64210044433A4C2D3E4F4B000D43
:0428A400000D0A0019
:00000001FF
